{
  "contractName": "CryptoEGameBetting",
  "abi": [
    {
      "inputs": [
        {
          "internalType": "address",
          "name": "_sattaTokenAddress",
          "type": "address"
        },
        {
          "internalType": "string",
          "name": "_apiToken",
          "type": "string"
        }
      ],
      "stateMutability": "nonpayable",
      "type": "constructor"
    },
    {
      "anonymous": false,
      "inputs": [
        {
          "indexed": true,
          "internalType": "address",
          "name": "_from",
          "type": "address"
        },
        {
          "indexed": false,
          "internalType": "uint256",
          "name": "matchId",
          "type": "uint256"
        },
        {
          "indexed": false,
          "internalType": "uint256",
          "name": "teamToWin",
          "type": "uint256"
        }
      ],
      "name": "BetPlaced",
      "type": "event"
    },
    {
      "anonymous": false,
      "inputs": [
        {
          "indexed": true,
          "internalType": "bytes32",
          "name": "id",
          "type": "bytes32"
        }
      ],
      "name": "ChainlinkCancelled",
      "type": "event"
    },
    {
      "anonymous": false,
      "inputs": [
        {
          "indexed": true,
          "internalType": "bytes32",
          "name": "id",
          "type": "bytes32"
        }
      ],
      "name": "ChainlinkFulfilled",
      "type": "event"
    },
    {
      "anonymous": false,
      "inputs": [
        {
          "indexed": true,
          "internalType": "bytes32",
          "name": "id",
          "type": "bytes32"
        }
      ],
      "name": "ChainlinkRequested",
      "type": "event"
    },
    {
      "anonymous": false,
      "inputs": [
        {
          "indexed": true,
          "internalType": "address",
          "name": "previousOwner",
          "type": "address"
        },
        {
          "indexed": true,
          "internalType": "address",
          "name": "newOwner",
          "type": "address"
        }
      ],
      "name": "OwnershipTransferred",
      "type": "event"
    },
    {
      "anonymous": false,
      "inputs": [
        {
          "indexed": true,
          "internalType": "address",
          "name": "_to",
          "type": "address"
        },
        {
          "indexed": false,
          "internalType": "uint256",
          "name": "reward",
          "type": "uint256"
        }
      ],
      "name": "Transfer",
      "type": "event"
    },
    {
      "inputs": [],
      "name": "bettingAmount",
      "outputs": [
        {
          "internalType": "uint256",
          "name": "",
          "type": "uint256"
        }
      ],
      "stateMutability": "view",
      "type": "function"
    },
    {
      "inputs": [],
      "name": "owner",
      "outputs": [
        {
          "internalType": "address",
          "name": "",
          "type": "address"
        }
      ],
      "stateMutability": "view",
      "type": "function"
    },
    {
      "inputs": [],
      "name": "renounceOwnership",
      "outputs": [],
      "stateMutability": "nonpayable",
      "type": "function"
    },
    {
      "inputs": [
        {
          "internalType": "string",
          "name": "_url",
          "type": "string"
        },
        {
          "internalType": "uint256",
          "name": "_matchId",
          "type": "uint256"
        },
        {
          "internalType": "bytes4",
          "name": "_selector",
          "type": "bytes4"
        }
      ],
      "name": "requestMatchStatus",
      "outputs": [
        {
          "internalType": "bytes32",
          "name": "requestId",
          "type": "bytes32"
        }
      ],
      "stateMutability": "nonpayable",
      "type": "function"
    },
    {
      "inputs": [],
      "name": "satta",
      "outputs": [
        {
          "internalType": "contract ERC20",
          "name": "",
          "type": "address"
        }
      ],
      "stateMutability": "view",
      "type": "function"
    },
    {
      "inputs": [
        {
          "internalType": "address",
          "name": "newOwner",
          "type": "address"
        }
      ],
      "name": "transferOwnership",
      "outputs": [],
      "stateMutability": "nonpayable",
      "type": "function"
    },
    {
      "inputs": [
        {
          "internalType": "uint256",
          "name": "_gameId",
          "type": "uint256"
        },
        {
          "internalType": "uint256",
          "name": "_matchId",
          "type": "uint256"
        },
        {
          "internalType": "uint256",
          "name": "_teamAId",
          "type": "uint256"
        },
        {
          "internalType": "uint256",
          "name": "_teamBId",
          "type": "uint256"
        },
        {
          "internalType": "uint256",
          "name": "_teamToWinId",
          "type": "uint256"
        }
      ],
      "name": "placeBet",
      "outputs": [],
      "stateMutability": "nonpayable",
      "type": "function"
    },
    {
      "inputs": [
        {
          "internalType": "uint256",
          "name": "_matchId",
          "type": "uint256"
        }
      ],
      "name": "checkAndDistributeRewards",
      "outputs": [],
      "stateMutability": "nonpayable",
      "type": "function"
    },
    {
      "inputs": [
        {
          "internalType": "bytes32",
          "name": "_requestId",
          "type": "bytes32"
        },
        {
          "internalType": "uint256",
          "name": "_result",
          "type": "uint256"
        }
      ],
      "name": "distributeRewards",
      "outputs": [],
      "stateMutability": "nonpayable",
      "type": "function"
    },
    {
      "inputs": [
        {
          "internalType": "uint256",
          "name": "_matchId",
          "type": "uint256"
        }
      ],
      "name": "getMatch",
      "outputs": [
        {
          "components": [
            {
              "internalType": "uint256",
              "name": "gameId",
              "type": "uint256"
            },
            {
              "internalType": "uint256",
              "name": "matchId",
              "type": "uint256"
            },
            {
              "internalType": "uint256",
              "name": "teamA",
              "type": "uint256"
            },
            {
              "internalType": "uint256",
              "name": "teamB",
              "type": "uint256"
            },
            {
              "internalType": "uint256",
              "name": "totalPayoutA",
              "type": "uint256"
            },
            {
              "internalType": "uint256",
              "name": "totalPayoutB",
              "type": "uint256"
            },
            {
              "internalType": "address[]",
              "name": "betsOnA",
              "type": "address[]"
            },
            {
              "internalType": "address[]",
              "name": "betsOnB",
              "type": "address[]"
            },
            {
              "internalType": "string",
              "name": "apiUrl",
              "type": "string"
            },
            {
              "internalType": "uint256",
              "name": "winner",
              "type": "uint256"
            },
            {
              "internalType": "bool",
              "name": "ended",
              "type": "bool"
            }
          ],
          "internalType": "struct CryptoEGameBetting.Match",
          "name": "",
          "type": "tuple"
        }
      ],
      "stateMutability": "view",
      "type": "function"
    },
    {
      "inputs": [
        {
          "internalType": "uint256",
          "name": "_gameId",
          "type": "uint256"
        }
      ],
      "name": "getMatchIdsForGame",
      "outputs": [
        {
          "internalType": "uint256[]",
          "name": "",
          "type": "uint256[]"
        }
      ],
      "stateMutability": "view",
      "type": "function"
    },
    {
      "inputs": [
        {
          "internalType": "string",
          "name": "_apiToken",
          "type": "string"
        }
      ],
      "name": "setApiToken",
      "outputs": [],
      "stateMutability": "nonpayable",
      "type": "function"
    },
    {
      "inputs": [
        {
          "internalType": "address",
          "name": "_oracle",
          "type": "address"
        },
        {
          "internalType": "bytes32",
          "name": "_jobId",
          "type": "bytes32"
        },
        {
          "internalType": "uint256",
          "name": "_fee",
          "type": "uint256"
        }
      ],
      "name": "setOracleSpecifications",
      "outputs": [],
      "stateMutability": "nonpayable",
      "type": "function"
    }
  ],
  "bytecode": "0x608060405260016005553480156200001657600080fd5b50604051620043ec380380620043ec83398181016040528101906200003c91906200066c565b6200005c620000506200021260201b60201c565b6200021a60201b60201c565b6200006c620002de60201b60201c565b73c57b33452b4f7bb189bb5afae9cc4aba1f7a4fd8600760006101000a81548173ffffffffffffffffffffffffffffffffffffffff021916908373ffffffffffffffffffffffffffffffffffffffff1602179055507f643532373064316333313139343164306230386265616432316665613737343760088190555067016345785d8a000060098190555081600f60006101000a81548173ffffffffffffffffffffffffffffffffffffffff021916908373ffffffffffffffffffffffffffffffffffffffff16021790555080600c908051906020019062000150929190620003ba565b50600f60009054906101000a900473ffffffffffffffffffffffffffffffffffffffff1673ffffffffffffffffffffffffffffffffffffffff1663313ce5676040518163ffffffff1660e01b8152600401602060405180830381865afa158015620001bf573d6000803e3d6000fd5b505050506040513d601f19601f82011682018060405250810190620001e5919062000710565b60ff16600a620001f69190620008cf565b600a62000204919062000920565b600b81905550505062000a18565b600033905090565b60008060009054906101000a900473ffffffffffffffffffffffffffffffffffffffff169050816000806101000a81548173ffffffffffffffffffffffffffffffffffffffff021916908373ffffffffffffffffffffffffffffffffffffffff1602179055508173ffffffffffffffffffffffffffffffffffffffff168173ffffffffffffffffffffffffffffffffffffffff167f8be0079c531659141344cd1fd0a4f28419497f9722a3daafe3b4186f6b6457e060405160405180910390a35050565b6200037473c89bd4e1632d3a43cb03aaad5262cbe4038bc57173ffffffffffffffffffffffffffffffffffffffff166338cc48316040518163ffffffff1660e01b8152600401602060405180830381865afa15801562000342573d6000803e3d6000fd5b505050506040513d601f19601f8201168201806040525081019062000368919062000981565b6200037660201b60201c565b565b80600360006101000a81548173ffffffffffffffffffffffffffffffffffffffff021916908373ffffffffffffffffffffffffffffffffffffffff16021790555050565b828054620003c890620009e2565b90600052602060002090601f016020900481019282620003ec576000855562000438565b82601f106200040757805160ff191683800117855562000438565b8280016001018555821562000438579182015b82811115620004375782518255916020019190600101906200041a565b5b5090506200044791906200044b565b5090565b5b80821115620004665760008160009055506001016200044c565b5090565b6000604051905090565b600080fd5b600080fd5b600073ffffffffffffffffffffffffffffffffffffffff82169050919050565b6000620004ab826200047e565b9050919050565b620004bd816200049e565b8114620004c957600080fd5b50565b600081519050620004dd81620004b2565b92915050565b600080fd5b600080fd5b6000601f19601f8301169050919050565b7f4e487b7100000000000000000000000000000000000000000000000000000000600052604160045260246000fd5b6200053882620004ed565b810181811067ffffffffffffffff821117156200055a5762000559620004fe565b5b80604052505050565b60006200056f6200046a565b90506200057d82826200052d565b919050565b600067ffffffffffffffff821115620005a0576200059f620004fe565b5b620005ab82620004ed565b9050602081019050919050565b60005b83811015620005d8578082015181840152602081019050620005bb565b83811115620005e8576000848401525b50505050565b600062000605620005ff8462000582565b62000563565b905082815260208101848484011115620006245762000623620004e8565b5b62000631848285620005b8565b509392505050565b600082601f830112620006515762000650620004e3565b5b815162000663848260208601620005ee565b91505092915050565b6000806040838503121562000686576200068562000474565b5b60006200069685828601620004cc565b925050602083015167ffffffffffffffff811115620006ba57620006b962000479565b5b620006c88582860162000639565b9150509250929050565b600060ff82169050919050565b620006ea81620006d2565b8114620006f657600080fd5b50565b6000815190506200070a81620006df565b92915050565b60006020828403121562000729576200072862000474565b5b60006200073984828501620006f9565b91505092915050565b7f4e487b7100000000000000000000000000000000000000000000000000000000600052601160045260246000fd5b60008160011c9050919050565b6000808291508390505b6001851115620007d057808604811115620007a857620007a762000742565b5b6001851615620007b85780820291505b8081029050620007c88562000771565b945062000788565b94509492505050565b600082620007eb5760019050620008be565b81620007fb5760009050620008be565b81600181146200081457600281146200081f5762000855565b6001915050620008be565b60ff84111562000834576200083362000742565b5b8360020a9150848211156200084e576200084d62000742565b5b50620008be565b5060208310610133831016604e8410600b84101617156200088f5782820a90508381111562000889576200088862000742565b5b620008be565b6200089e84848460016200077e565b92509050818404811115620008b857620008b762000742565b5b81810290505b9392505050565b6000819050919050565b6000620008dc82620008c5565b9150620008e983620008c5565b9250620009187fffffffffffffffffffffffffffffffffffffffffffffffffffffffffffffffff8484620007d9565b905092915050565b60006200092d82620008c5565b91506200093a83620008c5565b9250817fffffffffffffffffffffffffffffffffffffffffffffffffffffffffffffffff048311821515161562000976576200097562000742565b5b828202905092915050565b6000602082840312156200099a576200099962000474565b5b6000620009aa84828501620004cc565b91505092915050565b7f4e487b7100000000000000000000000000000000000000000000000000000000600052602260045260246000fd5b60006002820490506001821680620009fb57607f821691505b6020821081141562000a125762000a11620009b3565b5b50919050565b6139c48062000a286000396000f3fe608060405234801561001057600080fd5b50600436106100cf5760003560e01c8063586dbd681161008c578063c62e18ee11610066578063c62e18ee146101fe578063d353633a1461021c578063db45c6eb14610238578063f2fde38b14610254576100cf565b8063586dbd68146101a6578063715018a6146101d65780638da5cb5b146101e0576100cf565b806304ef6e3f146100d45780630928ac5c146100f05780631b472c101461010c5780631e72728a1461013c57806331ed70311461015a5780633d092b3d14610176575b600080fd5b6100ee60048036038101906100e99190612633565b610270565b005b61010a600480360381019061010591906127cc565b610340565b005b6101266004803603810190610121919061286d565b6103d6565b60405161013391906128eb565b60405180910390f35b61014461054d565b6040516101519190612915565b60405180910390f35b610174600480360381019061016f9190612930565b610553565b005b610190600480360381019061018b9190612930565b6106db565b60405161019d9190612bca565b60405180910390f35b6101c060048036038101906101bb9190612930565b610918565b6040516101cd9190612c9b565b60405180910390f35b6101de610983565b005b6101e8610a0b565b6040516101f59190612ccc565b60405180910390f35b610206610a34565b6040516102139190612d46565b60405180910390f35b61023660048036038101906102319190612d61565b610a5a565b005b610252600480360381019061024d9190612ddc565b611053565b005b61026e60048036038101906102699190612e1c565b611598565b005b610278611690565b73ffffffffffffffffffffffffffffffffffffffff16610296610a0b565b73ffffffffffffffffffffffffffffffffffffffff16146102ec576040517f08c379a00000000000000000000000000000000000000000000000000000000081526004016102e390612ea6565b60405180910390fd5b82600760006101000a81548173ffffffffffffffffffffffffffffffffffffffff021916908373ffffffffffffffffffffffffffffffffffffffff1602179055508160088190555080600981905550505050565b610348611690565b73ffffffffffffffffffffffffffffffffffffffff16610366610a0b565b73ffffffffffffffffffffffffffffffffffffffff16146103bc576040517f08c379a00000000000000000000000000000000000000000000000000000000081526004016103b390612ea6565b60405180910390fd5b80600c90805190602001906103d29291906122e4565b5050565b6000806103e66008543085611698565b90506104326040518060400160405280600381526020017f676574000000000000000000000000000000000000000000000000000000000081525086836116c99092919063ffffffff16565b6104b16040518060400160405280600481526020017f70617468000000000000000000000000000000000000000000000000000000008152506040518060400160405280600981526020017f77696e6e65722e69640000000000000000000000000000000000000000000000815250836116c99092919063ffffffff16565b6104fc6040518060400160405280600581526020017f74696d65730000000000000000000000000000000000000000000000000000008152506001836116fc9092919063ffffffff16565b61052b600760009054906101000a900473ffffffffffffffffffffffffffffffffffffffff168260095461172f565b915083600a600084815260200190815260200160002081905550509392505050565b600b5481565b61055b611690565b73ffffffffffffffffffffffffffffffffffffffff16610579610a0b565b73ffffffffffffffffffffffffffffffffffffffff16146105cf576040517f08c379a00000000000000000000000000000000000000000000000000000000081526004016105c690612ea6565b60405180910390fd5b6000600d6000838152602001908152602001600020905080600a0160009054906101000a900460ff1615610638576040517f08c379a000000000000000000000000000000000000000000000000000000000815260040161062f90612f12565b60405180910390fd5b6106d681600801805461064a90612f61565b80601f016020809104026020016040519081016040528092919081815260200182805461067690612f61565b80156106c35780601f10610698576101008083540402835291602001916106c3565b820191906000526020600020905b8154815290600101906020018083116106a657829003601f168201915b50505050508363db45c6eb60e01b6103d6565b505050565b6106e361236a565b600d600083815260200190815260200160002060405180610160016040529081600082015481526020016001820154815260200160028201548152602001600382015481526020016004820154815260200160058201548152602001600682018054806020026020016040519081016040528092919081815260200182805480156107c357602002820191906000526020600020905b8160009054906101000a900473ffffffffffffffffffffffffffffffffffffffff1673ffffffffffffffffffffffffffffffffffffffff1681526020019060010190808311610779575b505050505081526020016007820180548060200260200160405190810160405280929190818152602001828054801561085157602002820191906000526020600020905b8160009054906101000a900473ffffffffffffffffffffffffffffffffffffffff1673ffffffffffffffffffffffffffffffffffffffff1681526020019060010190808311610807575b5050505050815260200160088201805461086a90612f61565b80601f016020809104026020016040519081016040528092919081815260200182805461089690612f61565b80156108e35780601f106108b8576101008083540402835291602001916108e3565b820191906000526020600020905b8154815290600101906020018083116108c657829003601f168201915b5050505050815260200160098201548152602001600a820160009054906101000a900460ff1615151515815250509050919050565b6060600e600083815260200190815260200160002080548060200260200160405190810160405280929190818152602001828054801561097757602002820191906000526020600020905b815481526020019060010190808311610963575b50505050509050919050565b61098b611690565b73ffffffffffffffffffffffffffffffffffffffff166109a9610a0b565b73ffffffffffffffffffffffffffffffffffffffff16146109ff576040517f08c379a00000000000000000000000000000000000000000000000000000000081526004016109f690612ea6565b60405180910390fd5b610a0960006117fb565b565b60008060009054906101000a900473ffffffffffffffffffffffffffffffffffffffff16905090565b600f60009054906101000a900473ffffffffffffffffffffffffffffffffffffffff1681565b600f60009054906101000a900473ffffffffffffffffffffffffffffffffffffffff1673ffffffffffffffffffffffffffffffffffffffff166323b872dd3330600b546040518463ffffffff1660e01b8152600401610abb93929190612f93565b6020604051808303816000875af1158015610ada573d6000803e3d6000fd5b505050506040513d601f19601f82011682018060405250810190610afe9190612ff6565b506000610b40600d600087815260200190815260200160002060050154600d6000888152602001908152602001600020600401546118bf90919063ffffffff16565b1415610e35576000610c3360405180606001604052806022815260200161396d60229139610b6d876118d5565b6040518060400160405280600781526020017f3f746f6b656e3d00000000000000000000000000000000000000000000000000815250600c8054610bb090612f61565b80601f0160208091040260200160405190810160405280929190818152602001828054610bdc90612f61565b8015610c295780601f10610bfe57610100808354040283529160200191610c29565b820191906000526020600020905b815481529060010190602001808311610c0c57829003601f168201915b5050505050611a36565b905060006040518061016001604052808881526020018781526020018681526020018581526020016000815260200160008152602001600067ffffffffffffffff811115610c8457610c836126a1565b5b604051908082528060200260200182016040528015610cb25781602001602082028036833780820191505090505b508152602001600067ffffffffffffffff811115610cd357610cd26126a1565b5b604051908082528060200260200182016040528015610d015781602001602082028036833780820191505090505b5081526020018381526020016000815260200160001515815250905080600d6000888152602001908152602001600020600082015181600001556020820151816001015560408201518160020155606082015181600301556080820151816004015560a0820151816005015560c0820151816006019080519060200190610d899291906123c6565b5060e0820151816007019080519060200190610da69291906123c6565b50610100820151816008019080519060200190610dc49291906122e4565b50610120820151816009015561014082015181600a0160006101000a81548160ff021916908315150217905550905050600e60008881526020019081526020016000208160200151908060018154018082558091505060019003906000526020600020016000909190919091505550505b82811415610efe57610e68600b54600d6000878152602001908152602001600020600401546118bf90919063ffffffff16565b600d600086815260200190815260200160002060040181905550600d6000858152602001908152602001600020600601339080600181540180825580915050600190039060005260206000200160009091909190916101000a81548173ffffffffffffffffffffffffffffffffffffffff021916908373ffffffffffffffffffffffffffffffffffffffff160217905550610ffd565b818114610f40576040517f08c379a0000000000000000000000000000000000000000000000000000000008152600401610f3790613095565b60405180910390fd5b610f6b600b54600d6000878152602001908152602001600020600501546118bf90919063ffffffff16565b600d600086815260200190815260200160002060050181905550600d6000858152602001908152602001600020600701339080600181540180825580915050600190039060005260206000200160009091909190916101000a81548173ffffffffffffffffffffffffffffffffffffffff021916908373ffffffffffffffffffffffffffffffffffffffff1602179055505b3373ffffffffffffffffffffffffffffffffffffffff167e1ecf1d0c4d22f324b3ecb9cdf0e5f772bc74ac104e6626f4b3845433d0310585836040516110449291906130b5565b60405180910390a25050505050565b816006600082815260200190815260200160002060009054906101000a900473ffffffffffffffffffffffffffffffffffffffff1673ffffffffffffffffffffffffffffffffffffffff163373ffffffffffffffffffffffffffffffffffffffff16146110f5576040517f08c379a00000000000000000000000000000000000000000000000000000000081526004016110ec90613150565b60405180910390fd5b6006600082815260200190815260200160002060006101000a81549073ffffffffffffffffffffffffffffffffffffffff0219169055807f7cc135e0cebb02c3480ae5d74d377283180a2601f8f644edf7987b009316c63a60405160405180910390a26000600a60008581526020019081526020016000205490506000600d60008381526020019081526020016000209050600181600a0160006101000a81548160ff02191690831515021790555083816009018190555060006111ca826005015483600401546118bf90919063ffffffff16565b9050606060008360020154871415611288576111f6846006018054905084611a6890919063ffffffff16565b90508360060180548060200260200160405190810160405280929190818152602001828054801561127c57602002820191906000526020600020905b8160009054906101000a900473ffffffffffffffffffffffffffffffffffffffff1673ffffffffffffffffffffffffffffffffffffffff1681526020019060010190808311611232575b5050505050915061133d565b836003015487141561133c576112ae846007018054905084611a6890919063ffffffff16565b90508360070180548060200260200160405190810160405280929190818152602001828054801561133457602002820191906000526020600020905b8160009054906101000a900473ffffffffffffffffffffffffffffffffffffffff1673ffffffffffffffffffffffffffffffffffffffff16815260200190600101908083116112ea575b505050505091505b5b60005b825181101561141757600f60009054906101000a900473ffffffffffffffffffffffffffffffffffffffff1673ffffffffffffffffffffffffffffffffffffffff1663a9059cbb84838151811061139a57611399613170565b5b6020026020010151846040518363ffffffff1660e01b81526004016113c092919061319f565b6020604051808303816000875af11580156113df573d6000803e3d6000fd5b505050506040513d601f19601f820116820180604052508101906114039190612ff6565b50808061140f906131f7565b915050611340565b506000600e6000866000015481526020019081526020016000209050600080600090505b8280549050811015611483578783828154811061145b5761145a613170565b5b90600052602060002001541415611470578091505b808061147b906131f7565b91505061143b565b5081600183805490506114969190613240565b815481106114a7576114a6613170565b5b90600052602060002001548282815481106114c5576114c4613170565b5b9060005260206000200181905550818054806114e4576114e3613274565b5b60019003818190600052602060002001600090559055600d60008881526020019081526020016000206000808201600090556001820160009055600282016000905560038201600090556004820160009055600582016000905560068201600061154e9190612450565b60078201600061155e9190612450565b60088201600061156e9190612471565b6009820160009055600a820160006101000a81549060ff0219169055505050505050505050505050565b6115a0611690565b73ffffffffffffffffffffffffffffffffffffffff166115be610a0b565b73ffffffffffffffffffffffffffffffffffffffff1614611614576040517f08c379a000000000000000000000000000000000000000000000000000000000815260040161160b90612ea6565b60405180910390fd5b600073ffffffffffffffffffffffffffffffffffffffff168173ffffffffffffffffffffffffffffffffffffffff161415611684576040517f08c379a000000000000000000000000000000000000000000000000000000000815260040161167b90613315565b60405180910390fd5b61168d816117fb565b50565b600033905090565b6116a06124b1565b6116a86124b1565b6116bf85858584611a7e909392919063ffffffff16565b9150509392505050565b6116e0828460800151611b2e90919063ffffffff16565b6116f7818460800151611b2e90919063ffffffff16565b505050565b611713828460800151611b2e90919063ffffffff16565b61172a818460800151611b5390919063ffffffff16565b505050565b60008060055490506001816117449190613335565b6005819055506000634042994660e01b60008087600001513089604001518760018c60800151600001516040516024016117859897969594939291906133ef565b604051602081830303815290604052907bffffffffffffffffffffffffffffffffffffffffffffffffffffffff19166020820180517bffffffffffffffffffffffffffffffffffffffffffffffffffffffff838183161783525050505090506117f086838684611c00565b925050509392505050565b60008060009054906101000a900473ffffffffffffffffffffffffffffffffffffffff169050816000806101000a81548173ffffffffffffffffffffffffffffffffffffffff021916908373ffffffffffffffffffffffffffffffffffffffff1602179055508173ffffffffffffffffffffffffffffffffffffffff168173ffffffffffffffffffffffffffffffffffffffff167f8be0079c531659141344cd1fd0a4f28419497f9722a3daafe3b4186f6b6457e060405160405180910390a35050565b600081836118cd9190613335565b905092915050565b6060600082141561191d576040518060400160405280600181526020017f30000000000000000000000000000000000000000000000000000000000000008152509050611a31565b600082905060005b6000821461194f578080611938906131f7565b915050600a8261194891906134a3565b9150611925565b60008167ffffffffffffffff81111561196b5761196a6126a1565b5b6040519080825280601f01601f19166020018201604052801561199d5781602001600182028036833780820191505090505b5090505b60008514611a2a576001826119b69190613240565b9150600a856119c591906134d4565b60306119d19190613335565b60f81b8183815181106119e7576119e6613170565b5b60200101907effffffffffffffffffffffffffffffffffffffffffffffffffffffffffffff1916908160001a905350600a85611a2391906134a3565b94506119a1565b8093505050505b919050565b606084848484604051602001611a4f9493929190613541565b6040516020818303038152906040529050949350505050565b60008183611a7691906134a3565b905092915050565b611a866124b1565b611a968560800151610100611d95565b508385600001818152505082856020019073ffffffffffffffffffffffffffffffffffffffff16908173ffffffffffffffffffffffffffffffffffffffff16815250508185604001907bffffffffffffffffffffffffffffffffffffffffffffffffffffffff191690817bffffffffffffffffffffffffffffffffffffffffffffffffffffffff191681525050849050949350505050565b611b3b8260038351611dff565b611b4e8183611f8490919063ffffffff16565b505050565b7fffffffffffffffffffffffffffffffffffffffffffffffff0000000000000000811215611b8a57611b858282611fa6565b611bfc565b67ffffffffffffffff811315611ba957611ba4828261201d565b611bfb565b60008112611bc257611bbd82600083611dff565b611bfa565b611bf9826001837fffffffffffffffffffffffffffffffffffffffffffffffffffffffffffffffff611bf49190613589565b611dff565b5b5b5b5050565b60003084604051602001611c15929190613698565b604051602081830303815290604052805190602001209050846006600083815260200190815260200160002060006101000a81548173ffffffffffffffffffffffffffffffffffffffff021916908373ffffffffffffffffffffffffffffffffffffffff160217905550807fb5e6e01e79f91267dc17b4e6314d5d4d03593d2ceee0fbb452b750bd70ea5af960405160405180910390a2600360009054906101000a900473ffffffffffffffffffffffffffffffffffffffff1673ffffffffffffffffffffffffffffffffffffffff16634000aea08685856040518463ffffffff1660e01b8152600401611d0b939291906136c4565b6020604051808303816000875af1158015611d2a573d6000803e3d6000fd5b505050506040513d601f19601f82011682018060405250810190611d4e9190612ff6565b611d8d576040517f08c379a0000000000000000000000000000000000000000000000000000000008152600401611d8490613774565b60405180910390fd5b949350505050565b611d9d61251e565b6000602083611dac91906134d4565b14611dd857602082611dbe91906134d4565b6020611dca9190613240565b82611dd59190613335565b91505b81836020018181525050604051808452600081528281016020016040525082905092915050565b60178167ffffffffffffffff1611611e3657611e308160058460ff16901b60ff16178461206990919063ffffffff16565b50611f7f565b60ff8167ffffffffffffffff1611611e8c57611e65601860058460ff16901b178461206990919063ffffffff16565b50611e868167ffffffffffffffff166001856120899092919063ffffffff16565b50611f7e565b61ffff8167ffffffffffffffff1611611ee357611ebc601960058460ff16901b178461206990919063ffffffff16565b50611edd8167ffffffffffffffff166002856120899092919063ffffffff16565b50611f7d565b63ffffffff8167ffffffffffffffff1611611f3c57611f15601a60058460ff16901b178461206990919063ffffffff16565b50611f368167ffffffffffffffff166004856120899092919063ffffffff16565b50611f7c565b611f59601b60058460ff16901b178461206990919063ffffffff16565b50611f7a8167ffffffffffffffff166008856120899092919063ffffffff16565b505b5b5b5b505050565b611f8c61251e565b611f9e838460000151518485516120ab565b905092915050565b611fc460036005600660ff16901b178361206990919063ffffffff16565b5061201982827fffffffffffffffffffffffffffffffffffffffffffffffffffffffffffffffff611ff59190613589565b6040516020016120059190612915565b60405160208183030381529060405261219a565b5050565b61203b60026005600660ff16901b178361206990919063ffffffff16565b5061206582826040516020016120519190612915565b60405160208183030381529060405261219a565b5050565b61207161251e565b61208183846000015151846121bf565b905092915050565b61209161251e565b6120a2848560000151518585612216565b90509392505050565b6120b361251e565b82518211156120c157600080fd5b846020015182856120d29190613335565b1115612107576121068560026120f7886020015188876120f29190613335565b6122a4565b6121019190613794565b6122c0565b5b6000808651805187602083010193508088870111156121265787860182525b60208701925050505b6020841061216d57805182526020826121489190613335565b91506020816121579190613335565b90506020846121669190613240565b935061212f565b60006001856020036101000a03905080198251168184511681811785525050508692505050949350505050565b6121a78260028351611dff565b6121ba8183611f8490919063ffffffff16565b505050565b6121c761251e565b836020015183106121ed576121ec84600286602001516121e79190613794565b6122c0565b5b8351805160208583010184815381861415612209576001820183525b5050508390509392505050565b61221e61251e565b8460200151848361222f9190613335565b11156122575761225685600286856122479190613335565b6122519190613794565b6122c0565b5b60006001836101006122699190613921565b6122739190613240565b905085518386820101858319825116178152815185880111156122965784870182525b505085915050949350505050565b6000818311156122b6578290506122ba565b8190505b92915050565b6000826000015190506122d38383611d95565b506122de8382611f84565b50505050565b8280546122f090612f61565b90600052602060002090601f0160209004810192826123125760008555612359565b82601f1061232b57805160ff1916838001178555612359565b82800160010185558215612359579182015b8281111561235857825182559160200191906001019061233d565b5b5090506123669190612538565b5090565b604051806101600160405280600081526020016000815260200160008152602001600081526020016000815260200160008152602001606081526020016060815260200160608152602001600081526020016000151581525090565b82805482825590600052602060002090810192821561243f579160200282015b8281111561243e5782518260006101000a81548173ffffffffffffffffffffffffffffffffffffffff021916908373ffffffffffffffffffffffffffffffffffffffff160217905550916020019190600101906123e6565b5b50905061244c9190612538565b5090565b508054600082559060005260206000209081019061246e9190612538565b50565b50805461247d90612f61565b6000825580601f1061248f57506124ae565b601f0160209004906000526020600020908101906124ad9190612538565b5b50565b6040518060a0016040528060008019168152602001600073ffffffffffffffffffffffffffffffffffffffff16815260200160007bffffffffffffffffffffffffffffffffffffffffffffffffffffffff191681526020016000815260200161251861251e565b81525090565b604051806040016040528060608152602001600081525090565b5b80821115612551576000816000905550600101612539565b5090565b6000604051905090565b600080fd5b600080fd5b600073ffffffffffffffffffffffffffffffffffffffff82169050919050565b600061259482612569565b9050919050565b6125a481612589565b81146125af57600080fd5b50565b6000813590506125c18161259b565b92915050565b6000819050919050565b6125da816125c7565b81146125e557600080fd5b50565b6000813590506125f7816125d1565b92915050565b6000819050919050565b612610816125fd565b811461261b57600080fd5b50565b60008135905061262d81612607565b92915050565b60008060006060848603121561264c5761264b61255f565b5b600061265a868287016125b2565b935050602061266b868287016125e8565b925050604061267c8682870161261e565b9150509250925092565b600080fd5b600080fd5b6000601f19601f8301169050919050565b7f4e487b7100000000000000000000000000000000000000000000000000000000600052604160045260246000fd5b6126d982612690565b810181811067ffffffffffffffff821117156126f8576126f76126a1565b5b80604052505050565b600061270b612555565b905061271782826126d0565b919050565b600067ffffffffffffffff821115612737576127366126a1565b5b61274082612690565b9050602081019050919050565b82818337600083830152505050565b600061276f61276a8461271c565b612701565b90508281526020810184848401111561278b5761278a61268b565b5b61279684828561274d565b509392505050565b600082601f8301126127b3576127b2612686565b5b81356127c384826020860161275c565b91505092915050565b6000602082840312156127e2576127e161255f565b5b600082013567ffffffffffffffff811115612800576127ff612564565b5b61280c8482850161279e565b91505092915050565b60007fffffffff0000000000000000000000000000000000000000000000000000000082169050919050565b61284a81612815565b811461285557600080fd5b50565b60008135905061286781612841565b92915050565b6000806000606084860312156128865761288561255f565b5b600084013567ffffffffffffffff8111156128a4576128a3612564565b5b6128b08682870161279e565b93505060206128c18682870161261e565b92505060406128d286828701612858565b9150509250925092565b6128e5816125c7565b82525050565b600060208201905061290060008301846128dc565b92915050565b61290f816125fd565b82525050565b600060208201905061292a6000830184612906565b92915050565b6000602082840312156129465761294561255f565b5b60006129548482850161261e565b91505092915050565b612966816125fd565b82525050565b600081519050919050565b600082825260208201905092915050565b6000819050602082019050919050565b6129a181612589565b82525050565b60006129b38383612998565b60208301905092915050565b6000602082019050919050565b60006129d78261296c565b6129e18185612977565b93506129ec83612988565b8060005b83811015612a1d578151612a0488826129a7565b9750612a0f836129bf565b9250506001810190506129f0565b5085935050505092915050565b600081519050919050565b600082825260208201905092915050565b60005b83811015612a64578082015181840152602081019050612a49565b83811115612a73576000848401525b50505050565b6000612a8482612a2a565b612a8e8185612a35565b9350612a9e818560208601612a46565b612aa781612690565b840191505092915050565b60008115159050919050565b612ac781612ab2565b82525050565b600061016083016000830151612ae6600086018261295d565b506020830151612af9602086018261295d565b506040830151612b0c604086018261295d565b506060830151612b1f606086018261295d565b506080830151612b32608086018261295d565b5060a0830151612b4560a086018261295d565b5060c083015184820360c0860152612b5d82826129cc565b91505060e083015184820360e0860152612b7782826129cc565b915050610100830151848203610100860152612b938282612a79565b915050610120830151612baa61012086018261295d565b50610140830151612bbf610140860182612abe565b508091505092915050565b60006020820190508181036000830152612be48184612acd565b905092915050565b600081519050919050565b600082825260208201905092915050565b6000819050602082019050919050565b6000612c24838361295d565b60208301905092915050565b6000602082019050919050565b6000612c4882612bec565b612c528185612bf7565b9350612c5d83612c08565b8060005b83811015612c8e578151612c758882612c18565b9750612c8083612c30565b925050600181019050612c61565b5085935050505092915050565b60006020820190508181036000830152612cb58184612c3d565b905092915050565b612cc681612589565b82525050565b6000602082019050612ce16000830184612cbd565b92915050565b6000819050919050565b6000612d0c612d07612d0284612569565b612ce7565b612569565b9050919050565b6000612d1e82612cf1565b9050919050565b6000612d3082612d13565b9050919050565b612d4081612d25565b82525050565b6000602082019050612d5b6000830184612d37565b92915050565b600080600080600060a08688031215612d7d57612d7c61255f565b5b6000612d8b8882890161261e565b9550506020612d9c8882890161261e565b9450506040612dad8882890161261e565b9350506060612dbe8882890161261e565b9250506080612dcf8882890161261e565b9150509295509295909350565b60008060408385031215612df357612df261255f565b5b6000612e01858286016125e8565b9250506020612e128582860161261e565b9150509250929050565b600060208284031215612e3257612e3161255f565b5b6000612e40848285016125b2565b91505092915050565b600082825260208201905092915050565b7f4f776e61626c653a2063616c6c6572206973206e6f7420746865206f776e6572600082015250565b6000612e90602083612e49565b9150612e9b82612e5a565b602082019050919050565b60006020820190508181036000830152612ebf81612e83565b9050919050565b7f6d617463682068617320616c726561647920656e646564000000000000000000600082015250565b6000612efc601783612e49565b9150612f0782612ec6565b602082019050919050565b60006020820190508181036000830152612f2b81612eef565b9050919050565b7f4e487b7100000000000000000000000000000000000000000000000000000000600052602260045260246000fd5b60006002820490506001821680612f7957607f821691505b60208210811415612f8d57612f8c612f32565b5b50919050565b6000606082019050612fa86000830186612cbd565b612fb56020830185612cbd565b612fc26040830184612906565b949350505050565b612fd381612ab2565b8114612fde57600080fd5b50565b600081519050612ff081612fca565b92915050565b60006020828403121561300c5761300b61255f565b5b600061301a84828501612fe1565b91505092915050565b7f5465616d20746f2077696e2073686f756c64206265206569746865722074656160008201527f6d41206f72207465616d42000000000000000000000000000000000000000000602082015250565b600061307f602b83612e49565b915061308a82613023565b604082019050919050565b600060208201905081810360008301526130ae81613072565b9050919050565b60006040820190506130ca6000830185612906565b6130d76020830184612906565b9392505050565b7f536f75726365206d75737420626520746865206f7261636c65206f662074686560008201527f2072657175657374000000000000000000000000000000000000000000000000602082015250565b600061313a602883612e49565b9150613145826130de565b604082019050919050565b600060208201905081810360008301526131698161312d565b9050919050565b7f4e487b7100000000000000000000000000000000000000000000000000000000600052603260045260246000fd5b60006040820190506131b46000830185612cbd565b6131c16020830184612906565b9392505050565b7f4e487b7100000000000000000000000000000000000000000000000000000000600052601160045260246000fd5b6000613202826125fd565b91507fffffffffffffffffffffffffffffffffffffffffffffffffffffffffffffffff821415613235576132346131c8565b5b600182019050919050565b600061324b826125fd565b9150613256836125fd565b925082821015613269576132686131c8565b5b828203905092915050565b7f4e487b7100000000000000000000000000000000000000000000000000000000600052603160045260246000fd5b7f4f776e61626c653a206e6577206f776e657220697320746865207a65726f206160008201527f6464726573730000000000000000000000000000000000000000000000000000602082015250565b60006132ff602683612e49565b915061330a826132a3565b604082019050919050565b6000602082019050818103600083015261332e816132f2565b9050919050565b6000613340826125fd565b915061334b836125fd565b9250827fffffffffffffffffffffffffffffffffffffffffffffffffffffffffffffffff038211156133805761337f6131c8565b5b828201905092915050565b61339481612815565b82525050565b600081519050919050565b600082825260208201905092915050565b60006133c18261339a565b6133cb81856133a5565b93506133db818560208601612a46565b6133e481612690565b840191505092915050565b600061010082019050613405600083018b612cbd565b613412602083018a612906565b61341f60408301896128dc565b61342c6060830188612cbd565b613439608083018761338b565b61344660a0830186612906565b61345360c0830185612906565b81810360e083015261346581846133b6565b90509998505050505050505050565b7f4e487b7100000000000000000000000000000000000000000000000000000000600052601260045260246000fd5b60006134ae826125fd565b91506134b9836125fd565b9250826134c9576134c8613474565b5b828204905092915050565b60006134df826125fd565b91506134ea836125fd565b9250826134fa576134f9613474565b5b828206905092915050565b600081905092915050565b600061351b82612a2a565b6135258185613505565b9350613535818560208601612a46565b80840191505092915050565b600061354d8287613510565b91506135598286613510565b91506135658285613510565b91506135718284613510565b915081905095945050505050565b6000819050919050565b60006135948261357f565b915061359f8361357f565b9250827f8000000000000000000000000000000000000000000000000000000000000000018212600084121516156135da576135d96131c8565b5b827f7fffffffffffffffffffffffffffffffffffffffffffffffffffffffffffffff018213600084121615613612576136116131c8565b5b828203905092915050565b600061362882612d13565b9050919050565b60008160601b9050919050565b60006136478261362f565b9050919050565b60006136598261363c565b9050919050565b61367161366c8261361d565b61364e565b82525050565b6000819050919050565b61369261368d826125fd565b613677565b82525050565b60006136a48285613660565b6014820191506136b48284613681565b6020820191508190509392505050565b60006060820190506136d96000830186612cbd565b6136e66020830185612906565b81810360408301526136f881846133b6565b9050949350505050565b7f756e61626c6520746f207472616e73666572416e6443616c6c20746f206f726160008201527f636c650000000000000000000000000000000000000000000000000000000000602082015250565b600061375e602383612e49565b915061376982613702565b604082019050919050565b6000602082019050818103600083015261378d81613751565b9050919050565b600061379f826125fd565b91506137aa836125fd565b9250817fffffffffffffffffffffffffffffffffffffffffffffffffffffffffffffffff04831182151516156137e3576137e26131c8565b5b828202905092915050565b60008160011c9050919050565b6000808291508390505b600185111561384557808604811115613821576138206131c8565b5b60018516156138305780820291505b808102905061383e856137ee565b9450613805565b94509492505050565b60008261385e576001905061391a565b8161386c576000905061391a565b8160018114613882576002811461388c576138bb565b600191505061391a565b60ff84111561389e5761389d6131c8565b5b8360020a9150848211156138b5576138b46131c8565b5b5061391a565b5060208310610133831016604e8410600b84101617156138f05782820a9050838111156138eb576138ea6131c8565b5b61391a565b6138fd84848460016137fb565b92509050818404811115613914576139136131c8565b5b81810290505b9392505050565b600061392c826125fd565b9150613937836125fd565b92506139647fffffffffffffffffffffffffffffffffffffffffffffffffffffffffffffffff848461384e565b90509291505056fe68747470733a2f2f6170692e70616e646173636f72652e636f2f6d6174636865732fa2646970667358221220b5efd78e9810602bd986751ee05eefe9c418037cbfefaf625a637415df44946364736f6c634300080c0033",
  "immutableReferences": {},
  "source": "// SPDX-License-Identifier: MIT\npragma solidity ^0.8.0;\n\nimport \"@openzeppelin/contracts/utils/math/SafeMath.sol\";\nimport \"@openzeppelin/contracts/access/Ownable.sol\";\nimport \"@openzeppelin/contracts/utils/Strings.sol\";\nimport \"./strings.sol\";\nimport \"./Satta.sol\";\nimport \"./OracleClient.sol\";\n\ncontract CryptoEGameBetting is Ownable, OracleClient {\n\n    using SafeMath for uint256;\n\n    event BetPlaced(address indexed _from, uint matchId, uint256 teamToWin);\n    event Transfer(address indexed _to, uint reward);\n\n    uint256 public bettingAmount;\n    string private apiToken;\n\n    struct Match {\n        uint256 gameId;\n        uint256 matchId;\n\n        uint256 teamA;\n        uint256 teamB;\n\n        uint256 totalPayoutA;\n        uint256 totalPayoutB;\n\n        address[] betsOnA;\n        address[] betsOnB;\n\n        string apiUrl;\n\n        uint256 winner;\n        bool ended;\n    }\n\n    mapping(uint => Match) private idToMatch;\n    mapping(uint => uint[]) private gameIdToMatchIds;\n\n    ERC20 public satta;\n\n    constructor(address _sattaTokenAddress, string memory _apiToken) OracleClient() {\n        satta         = Satta(_sattaTokenAddress);\n        apiToken      = _apiToken;\n\n        bettingAmount = 10 * 10**uint(satta.decimals());\n    }\n\n    modifier validatePlaceBets(uint256 _matchId) {\n        // TODO: check if match is not_started \n        string memory errorMessage = concatStrings(\"Bet Price is \", Strings.toString(bettingAmount.div(satta.decimals())), \"!! Please allow this amount to be spent by contract address\", \"\");\n        require(satta.allowance(msg.sender, address(this)) >= bettingAmount, errorMessage);\n        _;\n    }\n\n    function placeBet(uint _gameId, uint _matchId, uint _teamAId, uint _teamBId, uint _teamToWinId) public {\n        satta.transferFrom(msg.sender, address(this), bettingAmount);\n\n        if(idToMatch[_matchId].totalPayoutA.add(idToMatch[_matchId].totalPayoutB) == 0)\n        {\n            string memory matchUrl = concatStrings(\"https://api.pandascore.co/matches/\", Strings.toString(_matchId), \"?token=\", apiToken);\n            Match memory newMatch = Match({gameId:_gameId, matchId:_matchId, teamA:_teamAId, teamB:_teamBId, totalPayoutA:0, totalPayoutB:0, betsOnA: new address[](0), betsOnB: new address[](0), apiUrl:matchUrl, winner:0, ended:false});\n            idToMatch[_matchId] = newMatch;\n            gameIdToMatchIds[_gameId].push(newMatch.matchId);\n        }\n\n        if(_teamToWinId == _teamAId)\n        {\n            idToMatch[_matchId].totalPayoutA = idToMatch[_matchId].totalPayoutA.add(bettingAmount);\n            idToMatch[_matchId].betsOnA.push(msg.sender);\n        }\n        else\n        {\n            require(_teamToWinId == _teamBId, \"Team to win should be either teamA or teamB\");\n            idToMatch[_matchId].totalPayoutB = idToMatch[_matchId].totalPayoutB.add(bettingAmount);\n            idToMatch[_matchId].betsOnB.push(msg.sender);\n        }\n\n        emit BetPlaced(msg.sender, _matchId, _teamToWinId);\n    }\n\n    function checkAndDistributeRewards(uint256 _matchId) public onlyOwner {\n        Match storage _match = idToMatch[_matchId];\n        require(!_match.ended, \"match has already ended\");\n        requestMatchStatus(_match.apiUrl, _matchId, this.distributeRewards.selector);\n    }\n\n    function distributeRewards(bytes32 _requestId, uint256 _result) public recordChainlinkFulfillment(_requestId){\n        uint256 matchId = requestIdToMatch[_requestId];\n        Match storage completedMatch = idToMatch[matchId];\n        completedMatch.ended = true;\n        completedMatch.winner = _result;\n\n        uint totalRewards = completedMatch.totalPayoutA.add(completedMatch.totalPayoutB);\n\n        address[] memory winners;\n        uint reward;\n        if(_result == completedMatch.teamA) {\n            reward  = totalRewards.div(completedMatch.betsOnA.length);\n            winners = completedMatch.betsOnA;\n        }\n        else if(_result == completedMatch.teamB) {\n            reward  = totalRewards.div(completedMatch.betsOnB.length);\n            winners = completedMatch.betsOnB;\n        }\n\n        for(uint i = 0; i < winners.length; i++)\n        {\n            satta.transfer(winners[i], reward);\n        }\n\n        uint[] storage onGoingMatchesIdsForGame = gameIdToMatchIds[completedMatch.gameId];\n        uint index;\n        for(uint i = 0; i < onGoingMatchesIdsForGame.length; i++)\n        {\n            if(onGoingMatchesIdsForGame[i] == matchId)\n            {\n                index = i;\n            }\n        }\n        onGoingMatchesIdsForGame[index] = onGoingMatchesIdsForGame[onGoingMatchesIdsForGame.length - 1];\n        onGoingMatchesIdsForGame.pop();\n\n        delete idToMatch[matchId];\n    }\n\n    function concatStrings(string memory _string1, string memory _string2, string memory _string3, string memory _string4) private pure returns (string memory) {\n        return string(abi.encodePacked(_string1, _string2, _string3, _string4));\n    }\n\n    function getMatch(uint _matchId) public view returns (Match memory) {\n        return idToMatch[_matchId];\n    }\n\n    function getMatchIdsForGame(uint _gameId) public view returns (uint[] memory) {\n        return gameIdToMatchIds[_gameId];\n    }\n\n    function setApiToken(string memory _apiToken) public onlyOwner {\n        apiToken = _apiToken;\n    }\n\n    function setOracleSpecifications(address _oracle, bytes32 _jobId, uint _fee) public onlyOwner {\n        oracle = _oracle;\n        jobId  = _jobId;\n        fee    = _fee;\n    }\n}",
  "sourcePath": "/Users/rishabh/projects/blockchain/battle-arena/src/contracts/CryptoEGameBetting.sol",
  "compiler": {
    "name": "solc",
    "version": "0.8.12+commit.f00d7308.Emscripten.clang"
  },
  "schemaVersion": "3.4.6",
  "updatedAt": "2022-03-13T08:17:53.497Z",
  "devdoc": {
    "kind": "dev",
    "methods": {
      "owner()": {
        "details": "Returns the address of the current owner."
      },
      "renounceOwnership()": {
        "details": "Leaves the contract without owner. It will not be possible to call `onlyOwner` functions anymore. Can only be called by the current owner. NOTE: Renouncing ownership will leave the contract without an owner, thereby removing any functionality that is only available to the owner."
      },
      "transferOwnership(address)": {
        "details": "Transfers ownership of the contract to a new account (`newOwner`). Can only be called by the current owner."
      }
    },
    "version": 1
  },
  "userdoc": {
    "kind": "user",
    "methods": {},
    "version": 1
  }
}