{
  "contractName": "OracleClient",
  "abi": [
    {
      "inputs": [],
      "stateMutability": "nonpayable",
      "type": "constructor"
    },
    {
      "anonymous": false,
      "inputs": [
        {
          "indexed": true,
          "internalType": "bytes32",
          "name": "id",
          "type": "bytes32"
        }
      ],
      "name": "ChainlinkCancelled",
      "type": "event"
    },
    {
      "anonymous": false,
      "inputs": [
        {
          "indexed": true,
          "internalType": "bytes32",
          "name": "id",
          "type": "bytes32"
        }
      ],
      "name": "ChainlinkFulfilled",
      "type": "event"
    },
    {
      "anonymous": false,
      "inputs": [
        {
          "indexed": true,
          "internalType": "bytes32",
          "name": "id",
          "type": "bytes32"
        }
      ],
      "name": "ChainlinkRequested",
      "type": "event"
    },
    {
      "inputs": [
        {
          "internalType": "string",
          "name": "_url",
          "type": "string"
        },
        {
          "internalType": "uint256",
          "name": "_matchId",
          "type": "uint256"
        },
        {
          "internalType": "bytes4",
          "name": "_selector",
          "type": "bytes4"
        }
      ],
      "name": "requestMatchStatus",
      "outputs": [
        {
          "internalType": "bytes32",
          "name": "requestId",
          "type": "bytes32"
        }
      ],
      "stateMutability": "nonpayable",
      "type": "function"
    }
  ],
  "bytecode": "0x608060405260016004553480156200001657600080fd5b5062000027620000b860201b60201c565b73c57b33452b4f7bb189bb5afae9cc4aba1f7a4fd8600660006101000a81548173ffffffffffffffffffffffffffffffffffffffff021916908373ffffffffffffffffffffffffffffffffffffffff1602179055507f643532373064316333313139343164306230386265616432316665613737343760078190555067016345785d8a000060088190555062000230565b6200014e73c89bd4e1632d3a43cb03aaad5262cbe4038bc57173ffffffffffffffffffffffffffffffffffffffff166338cc48316040518163ffffffff1660e01b8152600401602060405180830381865afa1580156200011c573d6000803e3d6000fd5b505050506040513d601f19601f82011682018060405250810190620001429190620001fe565b6200015060201b60201c565b565b80600260006101000a81548173ffffffffffffffffffffffffffffffffffffffff021916908373ffffffffffffffffffffffffffffffffffffffff16021790555050565b600080fd5b600073ffffffffffffffffffffffffffffffffffffffff82169050919050565b6000620001c68262000199565b9050919050565b620001d881620001b9565b8114620001e457600080fd5b50565b600081519050620001f881620001cd565b92915050565b60006020828403121562000217576200021662000194565b5b60006200022784828501620001e7565b91505092915050565b61162980620002406000396000f3fe608060405234801561001057600080fd5b506004361061002b5760003560e01c80631b472c1014610030575b600080fd5b61004a60048036038101906100459190610e0f565b610060565b6040516100579190610e97565b60405180910390f35b60008061007060075430856101d7565b90506100bc6040518060400160405280600381526020017f676574000000000000000000000000000000000000000000000000000000000081525086836102089092919063ffffffff16565b61013b6040518060400160405280600481526020017f70617468000000000000000000000000000000000000000000000000000000008152506040518060400160405280600981526020017f77696e6e65722e69640000000000000000000000000000000000000000000000815250836102089092919063ffffffff16565b6101866040518060400160405280600581526020017f74696d657300000000000000000000000000000000000000000000000000000081525060018361023b9092919063ffffffff16565b6101b5600660009054906101000a900473ffffffffffffffffffffffffffffffffffffffff168260085461026e565b9150836009600084815260200190815260200160002081905550509392505050565b6101df610ba0565b6101e7610ba0565b6101fe8585858461033a909392919063ffffffff16565b9150509392505050565b61021f8284608001516103ea90919063ffffffff16565b6102368184608001516103ea90919063ffffffff16565b505050565b6102528284608001516103ea90919063ffffffff16565b61026981846080015161040f90919063ffffffff16565b505050565b60008060045490506001816102839190610ee1565b6004819055506000634042994660e01b60008087600001513089604001518760018c60800151600001516040516024016102c498979695949392919061101e565b604051602081830303815290604052907bffffffffffffffffffffffffffffffffffffffffffffffffffffffff19166020820180517bffffffffffffffffffffffffffffffffffffffffffffffffffffffff8381831617835250505050905061032f868386846104bc565b925050509392505050565b610342610ba0565b6103528560800151610100610651565b508385600001818152505082856020019073ffffffffffffffffffffffffffffffffffffffff16908173ffffffffffffffffffffffffffffffffffffffff16815250508185604001907bffffffffffffffffffffffffffffffffffffffffffffffffffffffff191690817bffffffffffffffffffffffffffffffffffffffffffffffffffffffff191681525050849050949350505050565b6103f782600383516106bb565b61040a818361084090919063ffffffff16565b505050565b7fffffffffffffffffffffffffffffffffffffffffffffffff0000000000000000811215610446576104418282610862565b6104b8565b67ffffffffffffffff8113156104655761046082826108d9565b6104b7565b6000811261047e57610479826000836106bb565b6104b6565b6104b5826001837fffffffffffffffffffffffffffffffffffffffffffffffffffffffffffffffff6104b091906110ad565b6106bb565b5b5b5b5050565b600030846040516020016104d19291906111fa565b604051602081830303815290604052805190602001209050846005600083815260200190815260200160002060006101000a81548173ffffffffffffffffffffffffffffffffffffffff021916908373ffffffffffffffffffffffffffffffffffffffff160217905550807fb5e6e01e79f91267dc17b4e6314d5d4d03593d2ceee0fbb452b750bd70ea5af960405160405180910390a2600260009054906101000a900473ffffffffffffffffffffffffffffffffffffffff1673ffffffffffffffffffffffffffffffffffffffff16634000aea08685856040518463ffffffff1660e01b81526004016105c793929190611226565b6020604051808303816000875af11580156105e6573d6000803e3d6000fd5b505050506040513d601f19601f8201168201806040525081019061060a919061129c565b610649576040517f08c379a00000000000000000000000000000000000000000000000000000000081526004016106409061134c565b60405180910390fd5b949350505050565b610659610c0d565b6000602083610668919061139b565b146106945760208261067a919061139b565b602061068691906113cc565b826106919190610ee1565b91505b81836020018181525050604051808452600081528281016020016040525082905092915050565b60178167ffffffffffffffff16116106f2576106ec8160058460ff16901b60ff16178461092590919063ffffffff16565b5061083b565b60ff8167ffffffffffffffff161161074857610721601860058460ff16901b178461092590919063ffffffff16565b506107428167ffffffffffffffff166001856109459092919063ffffffff16565b5061083a565b61ffff8167ffffffffffffffff161161079f57610778601960058460ff16901b178461092590919063ffffffff16565b506107998167ffffffffffffffff166002856109459092919063ffffffff16565b50610839565b63ffffffff8167ffffffffffffffff16116107f8576107d1601a60058460ff16901b178461092590919063ffffffff16565b506107f28167ffffffffffffffff166004856109459092919063ffffffff16565b50610838565b610815601b60058460ff16901b178461092590919063ffffffff16565b506108368167ffffffffffffffff166008856109459092919063ffffffff16565b505b5b5b5b505050565b610848610c0d565b61085a83846000015151848551610967565b905092915050565b61088060036005600660ff16901b178361092590919063ffffffff16565b506108d582827fffffffffffffffffffffffffffffffffffffffffffffffffffffffffffffffff6108b191906110ad565b6040516020016108c19190611400565b604051602081830303815290604052610a56565b5050565b6108f760026005600660ff16901b178361092590919063ffffffff16565b50610921828260405160200161090d9190611400565b604051602081830303815290604052610a56565b5050565b61092d610c0d565b61093d8384600001515184610a7b565b905092915050565b61094d610c0d565b61095e848560000151518585610ad2565b90509392505050565b61096f610c0d565b825182111561097d57600080fd5b8460200151828561098e9190610ee1565b11156109c3576109c28560026109b3886020015188876109ae9190610ee1565b610b60565b6109bd919061141b565b610b7c565b5b6000808651805187602083010193508088870111156109e25787860182525b60208701925050505b60208410610a295780518252602082610a049190610ee1565b9150602081610a139190610ee1565b9050602084610a2291906113cc565b93506109eb565b60006001856020036101000a03905080198251168184511681811785525050508692505050949350505050565b610a6382600283516106bb565b610a76818361084090919063ffffffff16565b505050565b610a83610c0d565b83602001518310610aa957610aa88460028660200151610aa3919061141b565b610b7c565b5b8351805160208583010184815381861415610ac5576001820183525b5050508390509392505050565b610ada610c0d565b84602001518483610aeb9190610ee1565b1115610b1357610b128560028685610b039190610ee1565b610b0d919061141b565b610b7c565b5b6000600183610100610b2591906115a8565b610b2f91906113cc565b90508551838682010185831982511617815281518588011115610b525784870182525b505085915050949350505050565b600081831115610b7257829050610b76565b8190505b92915050565b600082600001519050610b8f8383610651565b50610b9a8382610840565b50505050565b6040518060a0016040528060008019168152602001600073ffffffffffffffffffffffffffffffffffffffff16815260200160007bffffffffffffffffffffffffffffffffffffffffffffffffffffffff1916815260200160008152602001610c07610c0d565b81525090565b604051806040016040528060608152602001600081525090565b6000604051905090565b600080fd5b600080fd5b600080fd5b600080fd5b6000601f19601f8301169050919050565b7f4e487b7100000000000000000000000000000000000000000000000000000000600052604160045260246000fd5b610c8e82610c45565b810181811067ffffffffffffffff82111715610cad57610cac610c56565b5b80604052505050565b6000610cc0610c27565b9050610ccc8282610c85565b919050565b600067ffffffffffffffff821115610cec57610ceb610c56565b5b610cf582610c45565b9050602081019050919050565b82818337600083830152505050565b6000610d24610d1f84610cd1565b610cb6565b905082815260208101848484011115610d4057610d3f610c40565b5b610d4b848285610d02565b509392505050565b600082601f830112610d6857610d67610c3b565b5b8135610d78848260208601610d11565b91505092915050565b6000819050919050565b610d9481610d81565b8114610d9f57600080fd5b50565b600081359050610db181610d8b565b92915050565b60007fffffffff0000000000000000000000000000000000000000000000000000000082169050919050565b610dec81610db7565b8114610df757600080fd5b50565b600081359050610e0981610de3565b92915050565b600080600060608486031215610e2857610e27610c31565b5b600084013567ffffffffffffffff811115610e4657610e45610c36565b5b610e5286828701610d53565b9350506020610e6386828701610da2565b9250506040610e7486828701610dfa565b9150509250925092565b6000819050919050565b610e9181610e7e565b82525050565b6000602082019050610eac6000830184610e88565b92915050565b7f4e487b7100000000000000000000000000000000000000000000000000000000600052601160045260246000fd5b6000610eec82610d81565b9150610ef783610d81565b9250827fffffffffffffffffffffffffffffffffffffffffffffffffffffffffffffffff03821115610f2c57610f2b610eb2565b5b828201905092915050565b600073ffffffffffffffffffffffffffffffffffffffff82169050919050565b6000610f6282610f37565b9050919050565b610f7281610f57565b82525050565b610f8181610d81565b82525050565b610f9081610db7565b82525050565b600081519050919050565b600082825260208201905092915050565b60005b83811015610fd0578082015181840152602081019050610fb5565b83811115610fdf576000848401525b50505050565b6000610ff082610f96565b610ffa8185610fa1565b935061100a818560208601610fb2565b61101381610c45565b840191505092915050565b600061010082019050611034600083018b610f69565b611041602083018a610f78565b61104e6040830189610e88565b61105b6060830188610f69565b6110686080830187610f87565b61107560a0830186610f78565b61108260c0830185610f78565b81810360e08301526110948184610fe5565b90509998505050505050505050565b6000819050919050565b60006110b8826110a3565b91506110c3836110a3565b9250827f8000000000000000000000000000000000000000000000000000000000000000018212600084121516156110fe576110fd610eb2565b5b827f7fffffffffffffffffffffffffffffffffffffffffffffffffffffffffffffff01821360008412161561113657611135610eb2565b5b828203905092915050565b6000819050919050565b600061116661116161115c84610f37565b611141565b610f37565b9050919050565b60006111788261114b565b9050919050565b600061118a8261116d565b9050919050565b60008160601b9050919050565b60006111a982611191565b9050919050565b60006111bb8261119e565b9050919050565b6111d36111ce8261117f565b6111b0565b82525050565b6000819050919050565b6111f46111ef82610d81565b6111d9565b82525050565b600061120682856111c2565b60148201915061121682846111e3565b6020820191508190509392505050565b600060608201905061123b6000830186610f69565b6112486020830185610f78565b818103604083015261125a8184610fe5565b9050949350505050565b60008115159050919050565b61127981611264565b811461128457600080fd5b50565b60008151905061129681611270565b92915050565b6000602082840312156112b2576112b1610c31565b5b60006112c084828501611287565b91505092915050565b600082825260208201905092915050565b7f756e61626c6520746f207472616e73666572416e6443616c6c20746f206f726160008201527f636c650000000000000000000000000000000000000000000000000000000000602082015250565b60006113366023836112c9565b9150611341826112da565b604082019050919050565b6000602082019050818103600083015261136581611329565b9050919050565b7f4e487b7100000000000000000000000000000000000000000000000000000000600052601260045260246000fd5b60006113a682610d81565b91506113b183610d81565b9250826113c1576113c061136c565b5b828206905092915050565b60006113d782610d81565b91506113e283610d81565b9250828210156113f5576113f4610eb2565b5b828203905092915050565b60006020820190506114156000830184610f78565b92915050565b600061142682610d81565b915061143183610d81565b9250817fffffffffffffffffffffffffffffffffffffffffffffffffffffffffffffffff048311821515161561146a57611469610eb2565b5b828202905092915050565b60008160011c9050919050565b6000808291508390505b60018511156114cc578086048111156114a8576114a7610eb2565b5b60018516156114b75780820291505b80810290506114c585611475565b945061148c565b94509492505050565b6000826114e557600190506115a1565b816114f357600090506115a1565b8160018114611509576002811461151357611542565b60019150506115a1565b60ff84111561152557611524610eb2565b5b8360020a91508482111561153c5761153b610eb2565b5b506115a1565b5060208310610133831016604e8410600b84101617156115775782820a90508381111561157257611571610eb2565b5b6115a1565b6115848484846001611482565b9250905081840481111561159b5761159a610eb2565b5b81810290505b9392505050565b60006115b382610d81565b91506115be83610d81565b92506115eb7fffffffffffffffffffffffffffffffffffffffffffffffffffffffffffffffff84846114d5565b90509291505056fea26469706673582212207bb3e83bfcc9d1372f333696913738cde15b2698d37ec193c887ea2b8b2f277d64736f6c634300080c0033",
  "immutableReferences": {},
  "source": "// SPDX-License-Identifier: MIT\r\npragma solidity ^0.8.4;\r\n\r\nimport \"@chainlink/contracts/src/v0.8/ChainlinkClient.sol\";\r\n\r\ncontract OracleClient is ChainlinkClient {\r\n\r\n    using Chainlink for Chainlink.Request;\r\n\r\n    address internal oracle;\r\n    bytes32 internal jobId;\r\n    uint256 internal fee;\r\n\r\n    mapping(bytes32 => uint256) requestIdToMatch;\r\n\r\n    constructor() {\r\n        setPublicChainlinkToken();\r\n        oracle = 0xc57B33452b4F7BB189bB5AfaE9cc4aBa1f7a4FD8;\r\n        jobId  = \"d5270d1c311941d0b08bead21fea7747\";\r\n        fee    = 0.1 * 10 ** 18;\r\n    }\r\n\r\n    function requestMatchStatus(string memory _url, uint256 _matchId, bytes4 _selector) public returns (bytes32 requestId)\r\n    {\r\n        Chainlink.Request memory request = buildChainlinkRequest(jobId, address(this), _selector);\r\n\r\n        request.add(\"get\", _url);\r\n        // Ex url: \"https://api.pandascore.co/matches/595477?token=4AUFMvQbjLwRnnuM5NLQqVwj8WPu-wQgNssRZjpV9WDDjnvNI68\"\r\n        request.add(\"path\", \"winner.id\");\r\n        request.addInt(\"times\", 1);\r\n\r\n        requestId = sendChainlinkRequestTo(oracle, request, fee);\r\n\r\n        requestIdToMatch[requestId] = _matchId;\r\n    }\r\n}\r\n",
  "sourcePath": "/Users/rishabh/projects/blockchain/battle-arena/src/contracts/OracleClient.sol",
  "compiler": {
    "name": "solc",
    "version": "0.8.12+commit.f00d7308.Emscripten.clang"
  },
  "schemaVersion": "3.4.6",
  "updatedAt": "2022-03-13T08:17:53.519Z",
  "devdoc": {
    "kind": "dev",
    "methods": {},
    "version": 1
  },
  "userdoc": {
    "kind": "user",
    "methods": {},
    "version": 1
  }
}