{
  "contractName": "strings",
  "abi": [
    {
      "inputs": [
        {
          "internalType": "string",
          "name": "self",
          "type": "string"
        }
      ],
      "name": "toSlice",
      "outputs": [
        {
          "components": [
            {
              "internalType": "uint256",
              "name": "_len",
              "type": "uint256"
            },
            {
              "internalType": "uint256",
              "name": "_ptr",
              "type": "uint256"
            }
          ],
          "internalType": "struct strings.slice",
          "name": "",
          "type": "tuple"
        }
      ],
      "stateMutability": "pure",
      "type": "function"
    }
  ],
  "bytecode": "0x6102ee610053600b82828239805160001a607314610046577f4e487b7100000000000000000000000000000000000000000000000000000000600052600060045260246000fd5b30600052607381538281f3fe73000000000000000000000000000000000000000030146080604052600436106100355760003560e01c8063afed762b1461003a575b600080fd5b610054600480360381019061004f919061020c565b61006a565b604051610061919061029d565b60405180910390f35b610072610098565b600060208301905060405180604001604052808451815260200182815250915050919050565b604051806040016040528060008152602001600081525090565b6000604051905090565b600080fd5b600080fd5b600080fd5b600080fd5b6000601f19601f8301169050919050565b7f4e487b7100000000000000000000000000000000000000000000000000000000600052604160045260246000fd5b610119826100d0565b810181811067ffffffffffffffff82111715610138576101376100e1565b5b80604052505050565b600061014b6100b2565b90506101578282610110565b919050565b600067ffffffffffffffff821115610177576101766100e1565b5b610180826100d0565b9050602081019050919050565b82818337600083830152505050565b60006101af6101aa8461015c565b610141565b9050828152602081018484840111156101cb576101ca6100cb565b5b6101d684828561018d565b509392505050565b600082601f8301126101f3576101f26100c6565b5b813561020384826020860161019c565b91505092915050565b600060208284031215610222576102216100bc565b5b600082013567ffffffffffffffff8111156102405761023f6100c1565b5b61024c848285016101de565b91505092915050565b6000819050919050565b61026881610255565b82525050565b604082016000820151610284600085018261025f565b506020820151610297602085018261025f565b50505050565b60006040820190506102b2600083018461026e565b9291505056fea26469706673582212202c793b13495dda8c4a8c1911cc3b3b2f068b4ec08912fbe2e7cbb37a711242ac64736f6c634300080c0033",
  "immutableReferences": {},
  "source": "// SPDX-License-Identifier: MIT\r\npragma solidity ^0.8.4;\r\n\r\nlibrary strings {\r\n    struct slice {\r\n        uint _len;\r\n        uint _ptr;\r\n    }\r\n\r\n    function memcpy(uint dest, uint src, uint len) private pure {\r\n        // Copy word-length chunks while possible\r\n        for(; len >= 32; len -= 32) {\r\n            assembly {\r\n                mstore(dest, mload(src))\r\n            }\r\n            dest += 32;\r\n            src += 32;\r\n        }\r\n\r\n        // Copy remaining bytes\r\n        uint mask = type(uint).max;\r\n        if (len > 0) {\r\n            mask = 256 ** (32 - len) - 1;\r\n        }\r\n        assembly {\r\n            let srcpart := and(mload(src), not(mask))\r\n            let destpart := and(mload(dest), mask)\r\n            mstore(dest, or(destpart, srcpart))\r\n        }\r\n    }\r\n\r\n    /*\r\n     * @dev Returns a slice containing the entire string.\r\n     * @param self The string to make a slice from.\r\n     * @return A newly allocated slice containing the entire string.\r\n     */\r\n    function toSlice(string memory self) public pure returns (slice memory) {\r\n        uint ptr;\r\n        assembly {\r\n            ptr := add(self, 0x20)\r\n        }\r\n        return slice(bytes(self).length, ptr);\r\n    }\r\n\r\n    /*\r\n     * @dev Returns the length of a null-terminated bytes32 string.\r\n     * @param self The value to find the length of.\r\n     * @return The length of the string, from 0 to 32.\r\n     */\r\n    function len(bytes32 self) internal pure returns (uint) {\r\n        uint ret;\r\n        if (self == 0)\r\n            return 0;\r\n        if (uint(self) & type(uint128).max == 0) {\r\n            ret += 16;\r\n            self = bytes32(uint(self) / 0x100000000000000000000000000000000);\r\n        }\r\n        if (uint(self) & type(uint64).max == 0) {\r\n            ret += 8;\r\n            self = bytes32(uint(self) / 0x10000000000000000);\r\n        }\r\n        if (uint(self) & type(uint32).max == 0) {\r\n            ret += 4;\r\n            self = bytes32(uint(self) / 0x100000000);\r\n        }\r\n        if (uint(self) & type(uint16).max == 0) {\r\n            ret += 2;\r\n            self = bytes32(uint(self) / 0x10000);\r\n        }\r\n        if (uint(self) & type(uint8).max == 0) {\r\n            ret += 1;\r\n        }\r\n        return 32 - ret;\r\n    }\r\n\r\n    /*\r\n     * @dev Returns a slice containing the entire bytes32, interpreted as a\r\n     *      null-terminated utf-8 string.\r\n     * @param self The bytes32 value to convert to a slice.\r\n     * @return A new slice containing the value of the input argument up to the\r\n     *         first null.\r\n     */\r\n    function toSliceB32(bytes32 self) internal pure returns (slice memory ret) {\r\n        // Allocate space for `self` in memory, copy it there, and point ret at it\r\n        assembly {\r\n            let ptr := mload(0x40)\r\n            mstore(0x40, add(ptr, 0x20))\r\n            mstore(ptr, self)\r\n            mstore(add(ret, 0x20), ptr)\r\n        }\r\n        ret._len = len(self);\r\n    }\r\n\r\n    /*\r\n     * @dev Returns a new slice containing the same data as the current slice.\r\n     * @param self The slice to copy.\r\n     * @return A new slice containing the same data as `self`.\r\n     */\r\n    function copy(slice memory self) internal pure returns (slice memory) {\r\n        return slice(self._len, self._ptr);\r\n    }\r\n\r\n    /*\r\n     * @dev Copies a slice to a new string.\r\n     * @param self The slice to copy.\r\n     * @return A newly allocated string containing the slice's text.\r\n     */\r\n    function toString(slice memory self) internal pure returns (string memory) {\r\n        string memory ret = new string(self._len);\r\n        uint retptr;\r\n        assembly { retptr := add(ret, 32) }\r\n\r\n        memcpy(retptr, self._ptr, self._len);\r\n        return ret;\r\n    }\r\n\r\n    /*\r\n     * @dev Returns the length in runes of the slice. Note that this operation\r\n     *      takes time proportional to the length of the slice; avoid using it\r\n     *      in loops, and call `slice.empty()` if you only need to know whether\r\n     *      the slice is empty or not.\r\n     * @param self The slice to operate on.\r\n     * @return The length of the slice in runes.\r\n     */\r\n    function len(slice memory self) internal pure returns (uint l) {\r\n        // Starting at ptr-31 means the LSB will be the byte we care about\r\n        uint ptr = self._ptr - 31;\r\n        uint end = ptr + self._len;\r\n        for (l = 0; ptr < end; l++) {\r\n            uint8 b;\r\n            assembly { b := and(mload(ptr), 0xFF) }\r\n            if (b < 0x80) {\r\n                ptr += 1;\r\n            } else if(b < 0xE0) {\r\n                ptr += 2;\r\n            } else if(b < 0xF0) {\r\n                ptr += 3;\r\n            } else if(b < 0xF8) {\r\n                ptr += 4;\r\n            } else if(b < 0xFC) {\r\n                ptr += 5;\r\n            } else {\r\n                ptr += 6;\r\n            }\r\n        }\r\n    }\r\n\r\n    /*\r\n     * @dev Returns true if the slice is empty (has a length of 0).\r\n     * @param self The slice to operate on.\r\n     * @return True if the slice is empty, False otherwise.\r\n     */\r\n    function empty(slice memory self) internal pure returns (bool) {\r\n        return self._len == 0;\r\n    }\r\n\r\n    /*\r\n     * @dev Returns a positive number if `other` comes lexicographically after\r\n     *      `self`, a negative number if it comes before, or zero if the\r\n     *      contents of the two slices are equal. Comparison is done per-rune,\r\n     *      on unicode codepoints.\r\n     * @param self The first slice to compare.\r\n     * @param other The second slice to compare.\r\n     * @return The result of the comparison.\r\n     */\r\n    function compare(slice memory self, slice memory other) internal pure returns (int) {\r\n        uint shortest = self._len;\r\n        if (other._len < self._len)\r\n            shortest = other._len;\r\n\r\n        uint selfptr = self._ptr;\r\n        uint otherptr = other._ptr;\r\n        for (uint idx = 0; idx < shortest; idx += 32) {\r\n            uint a;\r\n            uint b;\r\n            assembly {\r\n                a := mload(selfptr)\r\n                b := mload(otherptr)\r\n            }\r\n            if (a != b) {\r\n                // Mask out irrelevant bytes and check again\r\n                uint mask = type(uint).max; // 0xffff...\r\n                if(shortest < 32) {\r\n                    mask = ~(2 ** (8 * (32 - shortest + idx)) - 1);\r\n                }\r\n            unchecked {\r\n                uint diff = (a & mask) - (b & mask);\r\n                if (diff != 0)\r\n                    return int(diff);\r\n            }\r\n            }\r\n            selfptr += 32;\r\n            otherptr += 32;\r\n        }\r\n        return int(self._len) - int(other._len);\r\n    }\r\n\r\n    /*\r\n     * @dev Returns true if the two slices contain the same text.\r\n     * @param self The first slice to compare.\r\n     * @param self The second slice to compare.\r\n     * @return True if the slices are equal, false otherwise.\r\n     */\r\n    function equals(slice memory self, slice memory other) internal pure returns (bool) {\r\n        return compare(self, other) == 0;\r\n    }\r\n\r\n    /*\r\n     * @dev Extracts the first rune in the slice into `rune`, advancing the\r\n     *      slice to point to the next rune and returning `self`.\r\n     * @param self The slice to operate on.\r\n     * @param rune The slice that will contain the first rune.\r\n     * @return `rune`.\r\n     */\r\n    function nextRune(slice memory self, slice memory rune) internal pure returns (slice memory) {\r\n        rune._ptr = self._ptr;\r\n\r\n        if (self._len == 0) {\r\n            rune._len = 0;\r\n            return rune;\r\n        }\r\n\r\n        uint l;\r\n        uint b;\r\n        // Load the first byte of the rune into the LSBs of b\r\n        assembly { b := and(mload(sub(mload(add(self, 32)), 31)), 0xFF) }\r\n        if (b < 0x80) {\r\n            l = 1;\r\n        } else if(b < 0xE0) {\r\n            l = 2;\r\n        } else if(b < 0xF0) {\r\n            l = 3;\r\n        } else {\r\n            l = 4;\r\n        }\r\n\r\n        // Check for truncated codepoints\r\n        if (l > self._len) {\r\n            rune._len = self._len;\r\n            self._ptr += self._len;\r\n            self._len = 0;\r\n            return rune;\r\n        }\r\n\r\n        self._ptr += l;\r\n        self._len -= l;\r\n        rune._len = l;\r\n        return rune;\r\n    }\r\n\r\n    /*\r\n     * @dev Returns the first rune in the slice, advancing the slice to point\r\n     *      to the next rune.\r\n     * @param self The slice to operate on.\r\n     * @return A slice containing only the first rune from `self`.\r\n     */\r\n    function nextRune(slice memory self) internal pure returns (slice memory ret) {\r\n        nextRune(self, ret);\r\n    }\r\n\r\n    /*\r\n     * @dev Returns the number of the first codepoint in the slice.\r\n     * @param self The slice to operate on.\r\n     * @return The number of the first codepoint in the slice.\r\n     */\r\n    function ord(slice memory self) internal pure returns (uint ret) {\r\n        if (self._len == 0) {\r\n            return 0;\r\n        }\r\n\r\n        uint word;\r\n        uint length;\r\n        uint divisor = 2 ** 248;\r\n\r\n        // Load the rune into the MSBs of b\r\n        assembly { word:= mload(mload(add(self, 32))) }\r\n        uint b = word / divisor;\r\n        if (b < 0x80) {\r\n            ret = b;\r\n            length = 1;\r\n        } else if(b < 0xE0) {\r\n            ret = b & 0x1F;\r\n            length = 2;\r\n        } else if(b < 0xF0) {\r\n            ret = b & 0x0F;\r\n            length = 3;\r\n        } else {\r\n            ret = b & 0x07;\r\n            length = 4;\r\n        }\r\n\r\n        // Check for truncated codepoints\r\n        if (length > self._len) {\r\n            return 0;\r\n        }\r\n\r\n        for (uint i = 1; i < length; i++) {\r\n            divisor = divisor / 256;\r\n            b = (word / divisor) & 0xFF;\r\n            if (b & 0xC0 != 0x80) {\r\n                // Invalid UTF-8 sequence\r\n                return 0;\r\n            }\r\n            ret = (ret * 64) | (b & 0x3F);\r\n        }\r\n\r\n        return ret;\r\n    }\r\n\r\n    /*\r\n     * @dev Returns the keccak-256 hash of the slice.\r\n     * @param self The slice to hash.\r\n     * @return The hash of the slice.\r\n     */\r\n    function keccak(slice memory self) internal pure returns (bytes32 ret) {\r\n        assembly {\r\n            ret := keccak256(mload(add(self, 32)), mload(self))\r\n        }\r\n    }\r\n\r\n    /*\r\n     * @dev Returns true if `self` starts with `needle`.\r\n     * @param self The slice to operate on.\r\n     * @param needle The slice to search for.\r\n     * @return True if the slice starts with the provided text, false otherwise.\r\n     */\r\n    function startsWith(slice memory self, slice memory needle) internal pure returns (bool) {\r\n        if (self._len < needle._len) {\r\n            return false;\r\n        }\r\n\r\n        if (self._ptr == needle._ptr) {\r\n            return true;\r\n        }\r\n\r\n        bool equal;\r\n        assembly {\r\n            let length := mload(needle)\r\n            let selfptr := mload(add(self, 0x20))\r\n            let needleptr := mload(add(needle, 0x20))\r\n            equal := eq(keccak256(selfptr, length), keccak256(needleptr, length))\r\n        }\r\n        return equal;\r\n    }\r\n\r\n    /*\r\n     * @dev If `self` starts with `needle`, `needle` is removed from the\r\n     *      beginning of `self`. Otherwise, `self` is unmodified.\r\n     * @param self The slice to operate on.\r\n     * @param needle The slice to search for.\r\n     * @return `self`\r\n     */\r\n    function beyond(slice memory self, slice memory needle) internal pure returns (slice memory) {\r\n        if (self._len < needle._len) {\r\n            return self;\r\n        }\r\n\r\n        bool equal = true;\r\n        if (self._ptr != needle._ptr) {\r\n            assembly {\r\n                let length := mload(needle)\r\n                let selfptr := mload(add(self, 0x20))\r\n                let needleptr := mload(add(needle, 0x20))\r\n                equal := eq(keccak256(selfptr, length), keccak256(needleptr, length))\r\n            }\r\n        }\r\n\r\n        if (equal) {\r\n            self._len -= needle._len;\r\n            self._ptr += needle._len;\r\n        }\r\n\r\n        return self;\r\n    }\r\n\r\n    /*\r\n     * @dev Returns true if the slice ends with `needle`.\r\n     * @param self The slice to operate on.\r\n     * @param needle The slice to search for.\r\n     * @return True if the slice starts with the provided text, false otherwise.\r\n     */\r\n    function endsWith(slice memory self, slice memory needle) internal pure returns (bool) {\r\n        if (self._len < needle._len) {\r\n            return false;\r\n        }\r\n\r\n        uint selfptr = self._ptr + self._len - needle._len;\r\n\r\n        if (selfptr == needle._ptr) {\r\n            return true;\r\n        }\r\n\r\n        bool equal;\r\n        assembly {\r\n            let length := mload(needle)\r\n            let needleptr := mload(add(needle, 0x20))\r\n            equal := eq(keccak256(selfptr, length), keccak256(needleptr, length))\r\n        }\r\n\r\n        return equal;\r\n    }\r\n\r\n    /*\r\n     * @dev If `self` ends with `needle`, `needle` is removed from the\r\n     *      end of `self`. Otherwise, `self` is unmodified.\r\n     * @param self The slice to operate on.\r\n     * @param needle The slice to search for.\r\n     * @return `self`\r\n     */\r\n    function until(slice memory self, slice memory needle) internal pure returns (slice memory) {\r\n        if (self._len < needle._len) {\r\n            return self;\r\n        }\r\n\r\n        uint selfptr = self._ptr + self._len - needle._len;\r\n        bool equal = true;\r\n        if (selfptr != needle._ptr) {\r\n            assembly {\r\n                let length := mload(needle)\r\n                let needleptr := mload(add(needle, 0x20))\r\n                equal := eq(keccak256(selfptr, length), keccak256(needleptr, length))\r\n            }\r\n        }\r\n\r\n        if (equal) {\r\n            self._len -= needle._len;\r\n        }\r\n\r\n        return self;\r\n    }\r\n\r\n    // Returns the memory address of the first byte of the first occurrence of\r\n    // `needle` in `self`, or the first byte after `self` if not found.\r\n    function findPtr(uint selflen, uint selfptr, uint needlelen, uint needleptr) private pure returns (uint) {\r\n        uint ptr = selfptr;\r\n        uint idx;\r\n\r\n        if (needlelen <= selflen) {\r\n            if (needlelen <= 32) {\r\n                bytes32 mask;\r\n                if (needlelen > 0) {\r\n                    mask = bytes32(~(2 ** (8 * (32 - needlelen)) - 1));\r\n                }\r\n\r\n                bytes32 needledata;\r\n                assembly { needledata := and(mload(needleptr), mask) }\r\n\r\n                uint end = selfptr + selflen - needlelen;\r\n                bytes32 ptrdata;\r\n                assembly { ptrdata := and(mload(ptr), mask) }\r\n\r\n                while (ptrdata != needledata) {\r\n                    if (ptr >= end)\r\n                        return selfptr + selflen;\r\n                    ptr++;\r\n                    assembly { ptrdata := and(mload(ptr), mask) }\r\n                }\r\n                return ptr;\r\n            } else {\r\n                // For long needles, use hashing\r\n                bytes32 hash;\r\n                assembly { hash := keccak256(needleptr, needlelen) }\r\n\r\n                for (idx = 0; idx <= selflen - needlelen; idx++) {\r\n                    bytes32 testHash;\r\n                    assembly { testHash := keccak256(ptr, needlelen) }\r\n                    if (hash == testHash)\r\n                        return ptr;\r\n                    ptr += 1;\r\n                }\r\n            }\r\n        }\r\n        return selfptr + selflen;\r\n    }\r\n\r\n    // Returns the memory address of the first byte after the last occurrence of\r\n    // `needle` in `self`, or the address of `self` if not found.\r\n    function rfindPtr(uint selflen, uint selfptr, uint needlelen, uint needleptr) private pure returns (uint) {\r\n        uint ptr;\r\n\r\n        if (needlelen <= selflen) {\r\n            if (needlelen <= 32) {\r\n                bytes32 mask;\r\n                if (needlelen > 0) {\r\n                    mask = bytes32(~(2 ** (8 * (32 - needlelen)) - 1));\r\n                }\r\n\r\n                bytes32 needledata;\r\n                assembly { needledata := and(mload(needleptr), mask) }\r\n\r\n                ptr = selfptr + selflen - needlelen;\r\n                bytes32 ptrdata;\r\n                assembly { ptrdata := and(mload(ptr), mask) }\r\n\r\n                while (ptrdata != needledata) {\r\n                    if (ptr <= selfptr)\r\n                        return selfptr;\r\n                    ptr--;\r\n                    assembly { ptrdata := and(mload(ptr), mask) }\r\n                }\r\n                return ptr + needlelen;\r\n            } else {\r\n                // For long needles, use hashing\r\n                bytes32 hash;\r\n                assembly { hash := keccak256(needleptr, needlelen) }\r\n                ptr = selfptr + (selflen - needlelen);\r\n                while (ptr >= selfptr) {\r\n                    bytes32 testHash;\r\n                    assembly { testHash := keccak256(ptr, needlelen) }\r\n                    if (hash == testHash)\r\n                        return ptr + needlelen;\r\n                    ptr -= 1;\r\n                }\r\n            }\r\n        }\r\n        return selfptr;\r\n    }\r\n\r\n    /*\r\n     * @dev Modifies `self` to contain everything from the first occurrence of\r\n     *      `needle` to the end of the slice. `self` is set to the empty slice\r\n     *      if `needle` is not found.\r\n     * @param self The slice to search and modify.\r\n     * @param needle The text to search for.\r\n     * @return `self`.\r\n     */\r\n    function find(slice memory self, slice memory needle) internal pure returns (slice memory) {\r\n        uint ptr = findPtr(self._len, self._ptr, needle._len, needle._ptr);\r\n        self._len -= ptr - self._ptr;\r\n        self._ptr = ptr;\r\n        return self;\r\n    }\r\n\r\n    /*\r\n     * @dev Modifies `self` to contain the part of the string from the start of\r\n     *      `self` to the end of the first occurrence of `needle`. If `needle`\r\n     *      is not found, `self` is set to the empty slice.\r\n     * @param self The slice to search and modify.\r\n     * @param needle The text to search for.\r\n     * @return `self`.\r\n     */\r\n    function rfind(slice memory self, slice memory needle) internal pure returns (slice memory) {\r\n        uint ptr = rfindPtr(self._len, self._ptr, needle._len, needle._ptr);\r\n        self._len = ptr - self._ptr;\r\n        return self;\r\n    }\r\n\r\n    /*\r\n     * @dev Splits the slice, setting `self` to everything after the first\r\n     *      occurrence of `needle`, and `token` to everything before it. If\r\n     *      `needle` does not occur in `self`, `self` is set to the empty slice,\r\n     *      and `token` is set to the entirety of `self`.\r\n     * @param self The slice to split.\r\n     * @param needle The text to search for in `self`.\r\n     * @param token An output parameter to which the first token is written.\r\n     * @return `token`.\r\n     */\r\n    function split(slice memory self, slice memory needle, slice memory token) internal pure returns (slice memory) {\r\n        uint ptr = findPtr(self._len, self._ptr, needle._len, needle._ptr);\r\n        token._ptr = self._ptr;\r\n        token._len = ptr - self._ptr;\r\n        if (ptr == self._ptr + self._len) {\r\n            // Not found\r\n            self._len = 0;\r\n        } else {\r\n            self._len -= token._len + needle._len;\r\n            self._ptr = ptr + needle._len;\r\n        }\r\n        return token;\r\n    }\r\n\r\n    /*\r\n     * @dev Splits the slice, setting `self` to everything after the first\r\n     *      occurrence of `needle`, and returning everything before it. If\r\n     *      `needle` does not occur in `self`, `self` is set to the empty slice,\r\n     *      and the entirety of `self` is returned.\r\n     * @param self The slice to split.\r\n     * @param needle The text to search for in `self`.\r\n     * @return The part of `self` up to the first occurrence of `delim`.\r\n     */\r\n    function split(slice memory self, slice memory needle) internal pure returns (slice memory token) {\r\n        split(self, needle, token);\r\n    }\r\n\r\n    /*\r\n     * @dev Splits the slice, setting `self` to everything before the last\r\n     *      occurrence of `needle`, and `token` to everything after it. If\r\n     *      `needle` does not occur in `self`, `self` is set to the empty slice,\r\n     *      and `token` is set to the entirety of `self`.\r\n     * @param self The slice to split.\r\n     * @param needle The text to search for in `self`.\r\n     * @param token An output parameter to which the first token is written.\r\n     * @return `token`.\r\n     */\r\n    function rsplit(slice memory self, slice memory needle, slice memory token) internal pure returns (slice memory) {\r\n        uint ptr = rfindPtr(self._len, self._ptr, needle._len, needle._ptr);\r\n        token._ptr = ptr;\r\n        token._len = self._len - (ptr - self._ptr);\r\n        if (ptr == self._ptr) {\r\n            // Not found\r\n            self._len = 0;\r\n        } else {\r\n            self._len -= token._len + needle._len;\r\n        }\r\n        return token;\r\n    }\r\n\r\n    /*\r\n     * @dev Splits the slice, setting `self` to everything before the last\r\n     *      occurrence of `needle`, and returning everything after it. If\r\n     *      `needle` does not occur in `self`, `self` is set to the empty slice,\r\n     *      and the entirety of `self` is returned.\r\n     * @param self The slice to split.\r\n     * @param needle The text to search for in `self`.\r\n     * @return The part of `self` after the last occurrence of `delim`.\r\n     */\r\n    function rsplit(slice memory self, slice memory needle) internal pure returns (slice memory token) {\r\n        rsplit(self, needle, token);\r\n    }\r\n\r\n    /*\r\n     * @dev Counts the number of nonoverlapping occurrences of `needle` in `self`.\r\n     * @param self The slice to search.\r\n     * @param needle The text to search for in `self`.\r\n     * @return The number of occurrences of `needle` found in `self`.\r\n     */\r\n    function count(slice memory self, slice memory needle) internal pure returns (uint cnt) {\r\n        uint ptr = findPtr(self._len, self._ptr, needle._len, needle._ptr) + needle._len;\r\n        while (ptr <= self._ptr + self._len) {\r\n            cnt++;\r\n            ptr = findPtr(self._len - (ptr - self._ptr), ptr, needle._len, needle._ptr) + needle._len;\r\n        }\r\n    }\r\n\r\n    /*\r\n     * @dev Returns True if `self` contains `needle`.\r\n     * @param self The slice to search.\r\n     * @param needle The text to search for in `self`.\r\n     * @return True if `needle` is found in `self`, false otherwise.\r\n     */\r\n    function contains(slice memory self, slice memory needle) internal pure returns (bool) {\r\n        return rfindPtr(self._len, self._ptr, needle._len, needle._ptr) != self._ptr;\r\n    }\r\n\r\n    /*\r\n     * @dev Returns a newly allocated string containing the concatenation of\r\n     *      `self` and `other`.\r\n     * @param self The first slice to concatenate.\r\n     * @param other The second slice to concatenate.\r\n     * @return The concatenation of the two strings.\r\n     */\r\n    function concat(slice memory self, slice memory other) internal pure returns (string memory) {\r\n        string memory ret = new string(self._len + other._len);\r\n        uint retptr;\r\n        assembly { retptr := add(ret, 32) }\r\n        memcpy(retptr, self._ptr, self._len);\r\n        memcpy(retptr + self._len, other._ptr, other._len);\r\n        return ret;\r\n    }\r\n\r\n    /*\r\n     * @dev Joins an array of slices, using `self` as a delimiter, returning a\r\n     *      newly allocated string.\r\n     * @param self The delimiter to use.\r\n     * @param parts A list of slices to join.\r\n     * @return A newly allocated string containing all the slices in `parts`,\r\n     *         joined with `self`.\r\n     */\r\n    function join(slice memory self, slice[] memory parts) internal pure returns (string memory) {\r\n        if (parts.length == 0)\r\n            return \"\";\r\n\r\n        uint length = self._len * (parts.length - 1);\r\n        for(uint i = 0; i < parts.length; i++)\r\n            length += parts[i]._len;\r\n\r\n        string memory ret = new string(length);\r\n        uint retptr;\r\n        assembly { retptr := add(ret, 32) }\r\n\r\n        for(uint i = 0; i < parts.length; i++) {\r\n            memcpy(retptr, parts[i]._ptr, parts[i]._len);\r\n            retptr += parts[i]._len;\r\n            if (i < parts.length - 1) {\r\n                memcpy(retptr, self._ptr, self._len);\r\n                retptr += self._len;\r\n            }\r\n        }\r\n\r\n        return ret;\r\n    }\r\n}",
  "sourcePath": "/Users/rishabh/projects/blockchain/battle-arena/src/contracts/strings.sol",
  "compiler": {
    "name": "solc",
    "version": "0.8.12+commit.f00d7308.Emscripten.clang"
  },
  "schemaVersion": "3.4.6",
  "updatedAt": "2022-03-12T21:15:51.312Z",
  "devdoc": {
    "kind": "dev",
    "methods": {},
    "version": 1
  },
  "userdoc": {
    "kind": "user",
    "methods": {},
    "version": 1
  }
}